{
    "contractName": "TaskDataFacet",
    "abi": [
        {
            "anonymous": false,
            "inputs": [
                {
                    "indexed": false,
                    "internalType": "address",
                    "name": "contractAdr",
                    "type": "address"
                },
                {
                    "indexed": false,
                    "internalType": "string",
                    "name": "message",
                    "type": "string"
                },
                {
                    "indexed": false,
                    "internalType": "uint256",
                    "name": "timestamp",
                    "type": "uint256"
                }
            ],
            "name": "TaskCreated",
            "type": "event"
        },
        {
            "inputs": [
                {
                    "internalType": "address",
                    "name": "taskAddress",
                    "type": "address"
                }
            ],
            "name": "addTaskToBlacklist",
            "outputs": [],
            "stateMutability": "nonpayable",
            "type": "function"
        },
        {
            "inputs": [],
            "name": "contractTaskDataFacet",
            "outputs": [
                {
                    "internalType": "bool",
                    "name": "",
                    "type": "bool"
                }
            ],
            "stateMutability": "view",
            "type": "function"
        },
        {
            "inputs": [],
            "name": "getRawTaskContracts",
            "outputs": [
                {
                    "internalType": "address[]",
                    "name": "",
                    "type": "address[]"
                }
            ],
            "stateMutability": "view",
            "type": "function"
        },
        {
            "inputs": [],
            "name": "getTaskContracts",
            "outputs": [
                {
                    "internalType": "address[]",
                    "name": "",
                    "type": "address[]"
                }
            ],
            "stateMutability": "view",
            "type": "function"
        },
        {
            "inputs": [],
            "name": "getTaskContractsBlacklist",
            "outputs": [
                {
                    "internalType": "address[]",
                    "name": "",
                    "type": "address[]"
                }
            ],
            "stateMutability": "view",
            "type": "function"
        },
        {
            "inputs": [],
            "name": "getTaskContractsBlacklistMapping",
            "outputs": [
                {
                    "internalType": "address[]",
                    "name": "",
                    "type": "address[]"
                }
            ],
            "stateMutability": "view",
            "type": "function"
        },
        {
            "inputs": [
                {
                    "internalType": "string",
                    "name": "_taskState",
                    "type": "string"
                }
            ],
            "name": "getTaskContractsByState",
            "outputs": [
                {
                    "internalType": "address[]",
                    "name": "",
                    "type": "address[]"
                }
            ],
            "stateMutability": "view",
            "type": "function"
        },
        {
            "inputs": [
                {
                    "internalType": "string",
                    "name": "_taskState",
                    "type": "string"
                },
                {
                    "internalType": "uint256",
                    "name": "offset",
                    "type": "uint256"
                },
                {
                    "internalType": "uint256",
                    "name": "limit",
                    "type": "uint256"
                }
            ],
            "name": "getTaskContractsByStateLimit",
            "outputs": [
                {
                    "internalType": "address[]",
                    "name": "",
                    "type": "address[]"
                }
            ],
            "stateMutability": "view",
            "type": "function"
        },
        {
            "inputs": [],
            "name": "getTaskContractsCount",
            "outputs": [
                {
                    "internalType": "uint256",
                    "name": "",
                    "type": "uint256"
                }
            ],
            "stateMutability": "view",
            "type": "function"
        },
        {
            "inputs": [
                {
                    "internalType": "address",
                    "name": "contractOwner",
                    "type": "address"
                }
            ],
            "name": "getTaskContractsCustomer",
            "outputs": [
                {
                    "internalType": "address[]",
                    "name": "",
                    "type": "address[]"
                }
            ],
            "stateMutability": "view",
            "type": "function"
        },
        {
            "inputs": [
                {
                    "internalType": "address[]",
                    "name": "contractOwners",
                    "type": "address[]"
                }
            ],
            "name": "getTaskContractsCustomers",
            "outputs": [
                {
                    "internalType": "address[]",
                    "name": "",
                    "type": "address[]"
                }
            ],
            "stateMutability": "view",
            "type": "function"
        },
        {
            "inputs": [
                {
                    "internalType": "address",
                    "name": "participant",
                    "type": "address"
                }
            ],
            "name": "getTaskContractsPerformer",
            "outputs": [
                {
                    "internalType": "address[]",
                    "name": "",
                    "type": "address[]"
                }
            ],
            "stateMutability": "view",
            "type": "function"
        },
        {
            "inputs": [
                {
                    "internalType": "address[]",
                    "name": "participants",
                    "type": "address[]"
                }
            ],
            "name": "getTaskContractsPerformers",
            "outputs": [
                {
                    "internalType": "address[]",
                    "name": "",
                    "type": "address[]"
                }
            ],
            "stateMutability": "view",
            "type": "function"
        },
        {
            "inputs": [
                {
                    "internalType": "address[]",
                    "name": "taskContracts",
                    "type": "address[]"
                }
            ],
            "name": "getTasksData",
            "outputs": [
                {
                    "components": [
                        {
                            "components": [
                                {
                                    "internalType": "string",
                                    "name": "nanoId",
                                    "type": "string"
                                },
                                {
                                    "internalType": "uint256",
                                    "name": "createTime",
                                    "type": "uint256"
                                },
                                {
                                    "internalType": "string",
                                    "name": "taskType",
                                    "type": "string"
                                },
                                {
                                    "internalType": "string",
                                    "name": "title",
                                    "type": "string"
                                },
                                {
                                    "internalType": "string",
                                    "name": "description",
                                    "type": "string"
                                },
                                {
                                    "internalType": "string",
                                    "name": "repository",
                                    "type": "string"
                                },
                                {
                                    "internalType": "string[]",
                                    "name": "tags",
                                    "type": "string[]"
                                },
                                {
                                    "internalType": "uint256[]",
                                    "name": "tagsNFT",
                                    "type": "uint256[]"
                                },
                                {
                                    "internalType": "address[]",
                                    "name": "tokenContracts",
                                    "type": "address[]"
                                },
                                {
                                    "internalType": "uint256[][]",
                                    "name": "tokenIds",
                                    "type": "uint256[][]"
                                },
                                {
                                    "internalType": "uint256[][]",
                                    "name": "tokenAmounts",
                                    "type": "uint256[][]"
                                },
                                {
                                    "internalType": "string",
                                    "name": "taskState",
                                    "type": "string"
                                },
                                {
                                    "internalType": "string",
                                    "name": "auditState",
                                    "type": "string"
                                },
                                {
                                    "internalType": "uint256",
                                    "name": "performerRating",
                                    "type": "uint256"
                                },
                                {
                                    "internalType": "uint256",
                                    "name": "customerRating",
                                    "type": "uint256"
                                },
                                {
                                    "internalType": "address payable",
                                    "name": "contractOwner",
                                    "type": "address"
                                },
                                {
                                    "internalType": "address payable",
                                    "name": "participant",
                                    "type": "address"
                                },
                                {
                                    "internalType": "address",
                                    "name": "auditInitiator",
                                    "type": "address"
                                },
                                {
                                    "internalType": "address",
                                    "name": "auditor",
                                    "type": "address"
                                },
                                {
                                    "internalType": "address[]",
                                    "name": "participants",
                                    "type": "address[]"
                                },
                                {
                                    "internalType": "address[]",
                                    "name": "funders",
                                    "type": "address[]"
                                },
                                {
                                    "internalType": "address[]",
                                    "name": "auditors",
                                    "type": "address[]"
                                },
                                {
                                    "components": [
                                        {
                                            "internalType": "uint256",
                                            "name": "id",
                                            "type": "uint256"
                                        },
                                        {
                                            "internalType": "string",
                                            "name": "text",
                                            "type": "string"
                                        },
                                        {
                                            "internalType": "uint256",
                                            "name": "timestamp",
                                            "type": "uint256"
                                        },
                                        {
                                            "internalType": "address",
                                            "name": "sender",
                                            "type": "address"
                                        },
                                        {
                                            "internalType": "string",
                                            "name": "taskState",
                                            "type": "string"
                                        },
                                        {
                                            "internalType": "uint256",
                                            "name": "replyTo",
                                            "type": "uint256"
                                        }
                                    ],
                                    "internalType": "struct Message[]",
                                    "name": "messages",
                                    "type": "tuple[]"
                                },
                                {
                                    "internalType": "address",
                                    "name": "contractParent",
                                    "type": "address"
                                }
                            ],
                            "internalType": "struct Task",
                            "name": "task",
                            "type": "tuple"
                        },
                        {
                            "internalType": "string[][]",
                            "name": "tokenNames",
                            "type": "string[][]"
                        },
                        {
                            "internalType": "uint256[][]",
                            "name": "tokenBalances",
                            "type": "uint256[][]"
                        }
                    ],
                    "internalType": "struct TaskWithBalance[]",
                    "name": "",
                    "type": "tuple[]"
                }
            ],
            "stateMutability": "view",
            "type": "function"
        },
        {
            "inputs": [
                {
                    "internalType": "address",
                    "name": "taskAddress",
                    "type": "address"
                }
            ],
            "name": "removeTaskFromBlacklist",
            "outputs": [],
            "stateMutability": "nonpayable",
            "type": "function"
        }
    ],
    "bytecode": "608060405234801561001057600080fd5b5061358e806100206000396000f3fe608060405234801561001057600080fd5b50600436106100f55760003560e01c8063af4316db11610097578063d8ced0ed11610066578063d8ced0ed146101e1578063eb82e900146101f9578063edd2f3441461020c578063f21fe5e21461021f57600080fd5b8063af4316db14610193578063bbd63456146101b3578063cd8ac8df146101bb578063d1cf26f1146101ce57600080fd5b806361d868fd116100d357806361d868fd146101405780636ece1857146101485780637267a18614610150578063854d7fc31461016357600080fd5b8063019d91a6146100fa57806339bc2610146101235780634f56bf4b1461012b575b600080fd5b61010d6101083660046124f2565b610232565b60405161011a9190612542565b60405180910390f35b61010d6104b7565b61013e6101393660046125a4565b61066c565b005b61010d610869565b61010d6108dc565b61013e61015e3660046125a4565b61094d565b7f374578c9ffe981bd2e4eb40fb5a32b42dba93d8a771b8ca9c8a7a5222fb13c895460405190815260200161011a565b6101a66101a13660046125c8565b610aa9565b60405161011a9190612895565b61010d6119b9565b61010d6101c9366004612bd2565b611b15565b61010d6101dc3660046125c8565b611da8565b6101e9600181565b604051901515815260200161011a565b61010d6102073660046125a4565b611fab565b61010d61021a3660046125a4565b612057565b61010d61022d3660046125c8565b612101565b60606000805160206134d08339815191526000836001600160401b0381111561025d5761025d612c13565b604051908082528060200260200182016040528015610286578160200160208202803683370190505b5090506000855b6018840154811080156102a857506102a58683612c3f565b81105b156104aa5760008460180182815481106102c4576102c4612c52565b60009182526020822001546040805163db48ce0b60e01b815290516001600160a01b039092169263db48ce0b926004808401938290030181865afa158015610310573d6000803e3d6000fd5b505050506040513d6000823e601f3d908101601f191682016040526103389190810190613062565b9050898960405161034a92919061337d565b60405180910390208161016001518051906020012014801561042757506040805180820190915260038152626e657760e81b60209182015261016082015180519101206000805160206134f08339815191521480156103e9575084601b0160008660180184815481106103bf576103bf612c52565b60009182526020808320909101546001600160a01b0316835282019290925260400190205460ff16155b8061042757506040805180820190915260038152626e657760e81b60209182015261016082015180519101206000805160206134f083398151915214155b156104975784601801828154811061044157610441612c52565b9060005260206000200160009054906101000a90046001600160a01b031684848151811061047157610471612c52565b6001600160a01b0390921660209283029190910190910152826104938161338d565b9350505b50806104a28161338d565b91505061028d565b5081529695505050505050565b60606000805160206134d08339815191526000805b601a8301548110156105435782601b0160008460180183815481106104f3576104f3612c52565b60009182526020808320909101546001600160a01b0316835282019290925260400181205460ff1615159003610531578161052d8161338d565b9250505b8061053b8161338d565b9150506104cc565b506000816001600160401b0381111561055e5761055e612c13565b604051908082528060200260200182016040528015610587578160200160208202803683370190505b5090506000805b601a8501548110156106625784601b0160008660180183815481106105b5576105b5612c52565b60009182526020808320909101546001600160a01b0316835282019290925260400181205460ff1615159003610650578460180181815481106105fa576105fa612c52565b9060005260206000200160009054906101000a90046001600160a01b031683838151811061062a5761062a612c52565b6001600160a01b03909216602092830291909101909101528161064c8161338d565b9250505b8061065a8161338d565b91505061058e565b5090949350505050565b60405163cb086f9d60e01b81526000805160206134d083398151915290600090309063cb086f9d906106a29033906004016133a6565b602060405180830381865afa1580156106bf573d6000803e3d6000fd5b505050506040513d601f19601f820116820180604052508101906106e391906133da565b90506000811161070e5760405162461bcd60e51b8152600401610705906133f3565b60405180910390fd5b60005b601a83015481101561086357836001600160a01b031683601a01828154811061073c5761073c612c52565b6000918252602090912001546001600160a01b031603610851576001600160a01b0384166000908152601b840160205260409020805460ff19169055805b601a84015461078b9060019061343d565b81101561081a57601a84016107a1826001612c3f565b815481106107b1576107b1612c52565b600091825260209091200154601a850180546001600160a01b0390921691839081106107df576107df612c52565b600091825260209091200180546001600160a01b0319166001600160a01b0392909216919091179055806108128161338d565b91505061077a565b5082601a0180548061082e5761082e613450565b600082815260209020810160001990810180546001600160a01b03191690550190555b8061085b8161338d565b915050610711565b50505050565b606060006000805160206134d0833981519152601881018054604080516020808402820181019092528281529394508301828280156108d157602002820191906000526020600020905b81546001600160a01b031681526001909101906020018083116108b3575b505050505091505090565b606060006000805160206134d0833981519152601a81018054604080516020808402820181019092528281529394508301828280156108d1576020028201919060005260206000209081546001600160a01b031681526001909101906020018083116108b357505050505091505090565b60405163cb086f9d60e01b81526000805160206134d083398151915290600090309063cb086f9d906109839033906004016133a6565b602060405180830381865afa1580156109a0573d6000803e3d6000fd5b505050506040513d601f19601f820116820180604052508101906109c491906133da565b9050600081116109e65760405162461bcd60e51b8152600401610705906133f3565b6001600160a01b0383166000908152601b8301602052604090205460ff161515600103610a555760405162461bcd60e51b815260206004820152601b60248201527f7461736b20697320616c726561647920626c61636b6c697374656400000000006044820152606401610705565b50601a81018054600181810183556000928352602080842090920180546001600160a01b039096166001600160a01b031990961686179055938252601b90920190915260409020805460ff19169091179055565b60606000826001600160401b03811115610ac557610ac5612c13565b604051908082528060200260200182016040528015610afe57816020015b610aeb6123a6565b815260200190600190039081610ae35790505b50905060005b838110156119af57610b146123a6565b858583818110610b2657610b26612c52565b9050602002016020810190610b3b91906125a4565b6001600160a01b031663db48ce0b6040518163ffffffff1660e01b8152600401600060405180830381865afa158015610b78573d6000803e3d6000fd5b505050506040513d6000823e601f3d908101601f19168201604052610ba09190810190613062565b8082526101200151516001600160401b03811115610bc057610bc0612c13565b604051908082528060200260200182016040528015610bf357816020015b6060815260200190600190039081610bde5790505b50602082015280516101200151516001600160401b03811115610c1857610c18612c13565b604051908082528060200260200182016040528015610c4b57816020015b6060815260200190600190039081610c365790505b50604082015260005b815161010001515181101561197c578151610100015180516000919083908110610c8057610c80612c52565b60200260200101516001600160a01b031603610e735781516101200151805182908110610caf57610caf612c52565b6020026020010151516001600160401b03811115610ccf57610ccf612c13565b604051908082528060200260200182016040528015610d0257816020015b6060815260200190600190039081610ced5790505b5082602001518281518110610d1957610d19612c52565b60200260200101819052506040518060400160405280600381526020016208aa8960eb1b81525082602001518281518110610d5657610d56612c52565b6020026020010151600081518110610d7057610d70612c52565b6020026020010181905250816000015161012001518181518110610d9657610d96612c52565b6020026020010151516001600160401b03811115610db657610db6612c13565b604051908082528060200260200182016040528015610ddf578160200160208202803683370190505b5082604001518281518110610df657610df6612c52565b6020026020010181905250868684818110610e1357610e13612c52565b9050602002016020810190610e2891906125a4565b6001600160a01b03163182604001518281518110610e4857610e48612c52565b6020026020010151600081518110610e6257610e62612c52565b60200260200101818152505061196a565b81516101000151805182908110610e8c57610e8c612c52565b60209081029190910101516040516301ffc9a760e01b8152630271189760e51b60048201526001600160a01b03909116906301ffc9a790602401602060405180830381865afa158015610ee3573d6000803e3d6000fd5b505050506040513d601f19601f82011682018060405250810190610f079190613466565b156113435781516101200151805182908110610f2557610f25612c52565b6020026020010151516001600160401b03811115610f4557610f45612c13565b604051908082528060200260200182016040528015610f7857816020015b6060815260200190600190039081610f635790505b5082602001518281518110610f8f57610f8f612c52565b6020026020010181905250816000015161012001518181518110610fb557610fb5612c52565b6020026020010151516001600160401b03811115610fd557610fd5612c13565b604051908082528060200260200182016040528015610ffe578160200160208202803683370190505b508260400151828151811061101557611015612c52565b602002602001018190525060005b8251610120015180518390811061103c5761103c612c52565b60200260200101515181101561133d5761106d604051806060016040528060268152602001613510602691396122fa565b6110b183600001516101200151838151811061108b5761108b612c52565b602002602001015182815181106110a4576110a4612c52565b6020026020010151612340565b825161012001518051309163dbe16c0791859081106110d2576110d2612c52565b602002602001015183815181106110eb576110eb612c52565b60200260200101516040518263ffffffff1660e01b815260040161111191815260200190565b600060405180830381865afa15801561112e573d6000803e3d6000fd5b505050506040513d6000823e601f3d908101601f191682016040526111569190810190613488565b8360200151838151811061116c5761116c612c52565b6020026020010151828151811061118557611185612c52565b60200260200101819052506111b1604051806060016040528060238152602001613536602391396122fa565b6111f0836020015183815181106111ca576111ca612c52565b602002602001015182815181106111e3576111e3612c52565b60200260200101516122fa565b8251610100015180518390811061120957611209612c52565b60200260200101516001600160a01b031662fdd58e89898781811061123057611230612c52565b905060200201602081019061124591906125a4565b8551610120015180518690811061125e5761125e612c52565b6020026020010151848151811061127757611277612c52565b60200260200101516040518363ffffffff1660e01b81526004016112b09291906001600160a01b03929092168252602082015260400190565b602060405180830381865afa1580156112cd573d6000803e3d6000fd5b505050506040513d601f19601f820116820180604052508101906112f191906133da565b8360400151838151811061130757611307612c52565b6020026020010151828151811061132057611320612c52565b6020908102919091010152806113358161338d565b915050611023565b5061196a565b8151610100015180518290811061135c5761135c612c52565b60209081029190910101516040516301ffc9a760e01b81526336372b0760e01b60048201526001600160a01b03909116906301ffc9a790602401602060405180830381865afa1580156113b3573d6000803e3d6000fd5b505050506040513d601f19601f820116820180604052508101906113d79190613466565b1561162557815161012001518051829081106113f5576113f5612c52565b6020026020010151516001600160401b0381111561141557611415612c13565b60405190808252806020026020018201604052801561144857816020015b60608152602001906001900390816114335790505b508260200151828151811061145f5761145f612c52565b602002602001018190525081600001516101200151818151811061148557611485612c52565b6020026020010151516001600160401b038111156114a5576114a5612c13565b6040519080825280602002602001820160405280156114ce578160200160208202803683370190505b50826040015182815181106114e5576114e5612c52565b60200260200101819052506040518060400160405280600b81526020016a22a921991816ba37b5b2b760a91b8152508260200151828151811061152a5761152a612c52565b602002602001015160008151811061154457611544612c52565b602002602001018190525081600001516101000151818151811061156a5761156a612c52565b60200260200101516001600160a01b03166370a0823188888681811061159257611592612c52565b90506020020160208101906115a791906125a4565b6040516001600160e01b031960e084901b1681526001600160a01b039091166004820152602401602060405180830381865afa1580156115eb573d6000803e3d6000fd5b505050506040513d601f19601f8201168201806040525081019061160f91906133da565b82604001518281518110610e4857610e48612c52565b8151610100015180518290811061163e5761163e612c52565b60209081029190910101516040516301ffc9a760e01b81526380ac58cd60e01b60048201526001600160a01b03909116906301ffc9a790602401602060405180830381865afa158015611695573d6000803e3d6000fd5b505050506040513d601f19601f820116820180604052508101906116b99190613466565b1561196a57815161012001518051829081106116d7576116d7612c52565b6020026020010151516001600160401b038111156116f7576116f7612c13565b60405190808252806020026020018201604052801561172a57816020015b60608152602001906001900390816117155790505b508260200151828151811061174157611741612c52565b602002602001018190525081600001516101200151818151811061176757611767612c52565b6020026020010151516001600160401b0381111561178757611787612c13565b6040519080825280602002602001820160405280156117b0578160200160208202803683370190505b50826040015182815181106117c7576117c7612c52565b602002602001018190525060005b825161012001518051859081106117ee576117ee612c52565b602002602001015151811015611968576040518060400160405280600b81526020016a22a921991816ba37b5b2b760a91b8152508360200151838151811061183857611838612c52565b6020026020010151828151811061185157611851612c52565b602002602001018190525082600001516101000151828151811061187757611877612c52565b60200260200101516001600160a01b03166370a0823189898781811061189f5761189f612c52565b90506020020160208101906118b491906125a4565b6040516001600160e01b031960e084901b1681526001600160a01b039091166004820152602401602060405180830381865afa1580156118f8573d6000803e3d6000fd5b505050506040513d601f19601f8201168201806040525081019061191c91906133da565b8360400151838151811061193257611932612c52565b6020026020010151828151811061194b5761194b612c52565b6020908102919091010152806119608161338d565b9150506117d5565b505b806119748161338d565b915050610c54565b508083838151811061199057611990612c52565b60200260200101819052505080806119a79061338d565b915050610b04565b5090505b92915050565b7f374578c9ffe981bd2e4eb40fb5a32b42dba93d8a771b8ca9c8a7a5222fb13c89546060906000805160206134d0833981519152906000906001600160401b03811115611a0857611a08612c13565b604051908082528060200260200182016040528015611a31578160200160208202803683370190505b5090506000805b6018840154811015611b0c5783601b016000856018018381548110611a5f57611a5f612c52565b60009182526020808320909101546001600160a01b0316835282019290925260400181205460ff1615159003611afa57836018018181548110611aa457611aa4612c52565b9060005260206000200160009054906101000a90046001600160a01b0316838381518110611ad457611ad4612c52565b6001600160a01b039092166020928302919091019091015281611af68161338d565b9250505b80611b048161338d565b915050611a38565b50815292915050565b7f374578c9ffe981bd2e4eb40fb5a32b42dba93d8a771b8ca9c8a7a5222fb13c89546060906000805160206134d0833981519152906000906001600160401b03811115611b6457611b64612c13565b604051908082528060200260200182016040528015611b8d578160200160208202803683370190505b5090506000805b6018840154811015611d9d576000846018018281548110611bb757611bb7612c52565b60009182526020822001546040805163db48ce0b60e01b815290516001600160a01b039092169263db48ce0b926004808401938290030181865afa158015611c03573d6000803e3d6000fd5b505050506040513d6000823e601f3d908101601f19168201604052611c2b9190810190613062565b90508787604051611c3d92919061337d565b604051809103902081610160015180519060200120148015611d1a57506040805180820190915260038152626e657760e81b60209182015261016082015180519101206000805160206134f0833981519152148015611cdc575084601b016000866018018481548110611cb257611cb2612c52565b60009182526020808320909101546001600160a01b0316835282019290925260400190205460ff16155b80611d1a57506040805180820190915260038152626e657760e81b60209182015261016082015180519101206000805160206134f083398151915214155b15611d8a57846018018281548110611d3457611d34612c52565b9060005260206000200160009054906101000a90046001600160a01b0316848481518110611d6457611d64612c52565b6001600160a01b039092166020928302919091019091015282611d868161338d565b9350505b5080611d958161338d565b915050611b94565b508152949350505050565b60606000805160206134d08339815191526000805b84811015611e2d5782601c016000878784818110611ddd57611ddd612c52565b9050602002016020810190611df291906125a4565b6001600160a01b03168152602081019190915260400160002060040154611e199083612c3f565b915080611e258161338d565b915050611dbd565b506000816001600160401b03811115611e4857611e48612c13565b604051908082528060200260200182016040528015611e71578160200160208202803683370190505b50905060005b85811015611fa15760005b84601c016000898985818110611e9a57611e9a612c52565b9050602002016020810190611eaf91906125a4565b6001600160a01b03168152602081019190915260400160002060040154811015611f8e5784601c016000898985818110611eeb57611eeb612c52565b9050602002016020810190611f0091906125a4565b6001600160a01b03166001600160a01b031681526020019081526020016000206004018181548110611f3457611f34612c52565b9060005260206000200160009054906101000a90046001600160a01b0316838381518110611f6457611f64612c52565b6001600160a01b039092166020928302919091019091015280611f868161338d565b915050611e82565b5080611f998161338d565b915050611e77565b5095945050505050565b6001600160a01b03811660009081527f374578c9ffe981bd2e4eb40fb5a32b42dba93d8a771b8ca9c8a7a5222fb13c8d602090815260409182902060040180548351818402810184019094528084526060936000805160206134d0833981519152939092919083018282801561204a57602002820191906000526020600020905b81546001600160a01b0316815260019091019060200180831161202c575b5050505050915050919050565b6001600160a01b03811660009081527f374578c9ffe981bd2e4eb40fb5a32b42dba93d8a771b8ca9c8a7a5222fb13c8d602090815260409182902060030180548351818402810184019094528084526060936000805160206134d0833981519152939092919083018282801561204a576020028201919060005260206000209081546001600160a01b0316815260019091019060200180831161202c575050505050915050919050565b60606000805160206134d08339815191526000805b848110156121865782601c01600087878481811061213657612136612c52565b905060200201602081019061214b91906125a4565b6001600160a01b031681526020810191909152604001600020600301546121729083612c3f565b91508061217e8161338d565b915050612116565b506000816001600160401b038111156121a1576121a1612c13565b6040519080825280602002602001820160405280156121ca578160200160208202803683370190505b50905060005b85811015611fa15760005b84601c0160008989858181106121f3576121f3612c52565b905060200201602081019061220891906125a4565b6001600160a01b031681526020810191909152604001600020600301548110156122e75784601c01600089898581811061224457612244612c52565b905060200201602081019061225991906125a4565b6001600160a01b03166001600160a01b03168152602001908152602001600020600301818154811061228d5761228d612c52565b9060005260206000200160009054906101000a90046001600160a01b03168383815181106122bd576122bd612c52565b6001600160a01b0390921660209283029190910190910152806122df8161338d565b9150506121db565b50806122f28161338d565b9150506121d0565b61233d8160405160240161230e91906134bc565b60408051601f198184030181529190526020810180516001600160e01b031663104c13eb60e21b179052612381565b50565b61233d8160405160240161235691815260200190565b60408051601f198184030181529190526020810180516001600160e01b031663f82c50f160e01b1790525b61233d8160006a636f6e736f6c652e6c6f679050600080835160208501845afa505050565b604051806060016040528061249660405180610300016040528060608152602001600081526020016060815260200160608152602001606081526020016060815260200160608152602001606081526020016060815260200160608152602001606081526020016060815260200160608152602001600081526020016000815260200160006001600160a01b0316815260200160006001600160a01b0316815260200160006001600160a01b0316815260200160006001600160a01b031681526020016060815260200160608152602001606081526020016060815260200160006001600160a01b031681525090565b815260200160608152602001606081525090565b60008083601f8401126124bc57600080fd5b5081356001600160401b038111156124d357600080fd5b6020830191508360208285010111156124eb57600080fd5b9250929050565b6000806000806060858703121561250857600080fd5b84356001600160401b0381111561251e57600080fd5b61252a878288016124aa565b90989097506020870135966040013595509350505050565b6020808252825182820181905260009190848201906040850190845b818110156125835783516001600160a01b03168352928401929184019160010161255e565b50909695505050505050565b6001600160a01b038116811461233d57600080fd5b6000602082840312156125b657600080fd5b81356125c18161258f565b9392505050565b600080602083850312156125db57600080fd5b82356001600160401b03808211156125f257600080fd5b818501915085601f83011261260657600080fd5b81358181111561261557600080fd5b8660208260051b850101111561262a57600080fd5b60209290920196919550909350505050565b60005b8381101561265757818101518382015260200161263f565b50506000910152565b6000815180845261267881602086016020860161263c565b601f01601f19169290920160200192915050565b600082825180855260208086019550808260051b84010181860160005b848110156126d757601f198684030189526126c5838351612660565b988401989250908301906001016126a9565b5090979650505050505050565b600081518084526020808501945080840160005b83811015612714578151875295820195908201906001016126f8565b509495945050505050565b600081518084526020808501945080840160005b838110156127145781516001600160a01b031687529582019590820190600101612733565b6000815180845260208085019450848260051b860182860160005b858110156126d757838303895261278b8383516126e4565b98850198925090840190600101612773565b600081518084526020808501808196508360051b8101915082860160005b85811015612840578284038952815160c0815186528682015181888801526127e582880182612660565b604084810151908901526060808501516001600160a01b031690890152608080850151898303828b0152919350915061281e8382612660565b60a09485015198909401979097525050988501989350908401906001016127bb565b5091979650505050505050565b600081518084526020808501808196508360051b8101915082860160005b8581101561284057828403895261288384835161268c565b9885019893509084019060010161286b565b60006020808301818452808551808352604092508286019150828160051b87010184880160005b83811015612bc457603f19898403018552815160608151818652805161030080848901526128ee610360890183612660565b91508b830151608081818b01528c8501519150605f1960a0818c870301818d01526129198685612660565b955087870151975060c09350818c870301848d01526129388689612660565b975082870151955060e09250818c890301838d01526129578887612660565b975080870151955050610100818c890301818d01526129768887612660565b97508387015195506101209350818c890301848d0152612996888761268c565b97508287015195506101409250818c890301838d01526129b688876126e4565b975080870151955050610160818c890301818d01526129d5888761271f565b97508387015195506101809350818c890301848d01526129f58887612758565b97508287015195506101a09250818c890301838d0152612a158887612758565b9750808701519550506101c0818c890301818d0152612a348887612660565b97508387015195506101e09350818c890301848d0152612a548887612660565b928701516102008d81019190915290870151610220808e01919091529387015192975091945061024092612a92848d01876001600160a01b03169052565b91860151945061026091612ab08c8401876001600160a01b03169052565b8601519450610280612acc8c8201876001600160a01b03169052565b9286015194506102a092612aea8c8501876001600160a01b03169052565b8287015195506102c09250818c890301838d0152612b08888761271f565b9750808701519550506102e0818c890301818d0152612b27888761271f565b9750838701519550818c890301858d0152612b42888761271f565b9750828701519550818c8903016103208d0152612b5f888761279d565b9601516001600160a01b0381166103408d0152959650612b80945050505050565b50888201518582038a870152612b96828261284d565b91505087820151915084810388860152612bb08183612758565b9689019694505050908601906001016128bc565b509098975050505050505050565b60008060208385031215612be557600080fd5b82356001600160401b03811115612bfb57600080fd5b612c07858286016124aa565b90969095509350505050565b634e487b7160e01b600052604160045260246000fd5b634e487b7160e01b600052601160045260246000fd5b808201808211156119b3576119b3612c29565b634e487b7160e01b600052603260045260246000fd5b60405160c081016001600160401b0381118282101715612c8a57612c8a612c13565b60405290565b60405161030081016001600160401b0381118282101715612c8a57612c8a612c13565b604051601f8201601f191681016001600160401b0381118282101715612cdb57612cdb612c13565b604052919050565b600082601f830112612cf457600080fd5b81516001600160401b03811115612d0d57612d0d612c13565b612d20601f8201601f1916602001612cb3565b818152846020838601011115612d3557600080fd5b612d4682602083016020870161263c565b949350505050565b60006001600160401b03821115612d6757612d67612c13565b5060051b60200190565b600082601f830112612d8257600080fd5b81516020612d97612d9283612d4e565b612cb3565b82815260059290921b84018101918181019086841115612db657600080fd5b8286015b84811015612df55780516001600160401b03811115612dd95760008081fd5b612de78986838b0101612ce3565b845250918301918301612dba565b509695505050505050565b600082601f830112612e1157600080fd5b81516020612e21612d9283612d4e565b82815260059290921b84018101918181019086841115612e4057600080fd5b8286015b84811015612df55780518352918301918301612e44565b8051612e668161258f565b919050565b600082601f830112612e7c57600080fd5b81516020612e8c612d9283612d4e565b82815260059290921b84018101918181019086841115612eab57600080fd5b8286015b84811015612df5578051612ec28161258f565b8352918301918301612eaf565b600082601f830112612ee057600080fd5b81516020612ef0612d9283612d4e565b82815260059290921b84018101918181019086841115612f0f57600080fd5b8286015b84811015612df55780516001600160401b03811115612f325760008081fd5b612f408986838b0101612e00565b845250918301918301612f13565b600082601f830112612f5f57600080fd5b81516020612f6f612d9283612d4e565b82815260059290921b84018101918181019086841115612f8e57600080fd5b8286015b84811015612df55780516001600160401b0380821115612fb25760008081fd5b9088019060c0828b03601f1901811315612fcc5760008081fd5b612fd4612c68565b87840151815260408085015184811115612fee5760008081fd5b612ffc8e8b83890101612ce3565b8a84015250606080860151828401526080915061301a828701612e5b565b9083015260a085810151858111156130325760008081fd5b6130408f8c838a0101612ce3565b9284019290925294909201519381019390935250508352918301918301612f92565b60006020828403121561307457600080fd5b81516001600160401b038082111561308b57600080fd5b9083019061030082860312156130a057600080fd5b6130a8612c90565b8251828111156130b757600080fd5b6130c387828601612ce3565b825250602083015160208201526040830151828111156130e257600080fd5b6130ee87828601612ce3565b60408301525060608301518281111561310657600080fd5b61311287828601612ce3565b60608301525060808301518281111561312a57600080fd5b61313687828601612ce3565b60808301525060a08301518281111561314e57600080fd5b61315a87828601612ce3565b60a08301525060c08301518281111561317257600080fd5b61317e87828601612d71565b60c08301525060e08301518281111561319657600080fd5b6131a287828601612e00565b60e08301525061010080840151838111156131bc57600080fd5b6131c888828701612e6b565b82840152505061012080840151838111156131e257600080fd5b6131ee88828701612ecf565b828401525050610140808401518381111561320857600080fd5b61321488828701612ecf565b828401525050610160808401518381111561322e57600080fd5b61323a88828701612ce3565b828401525050610180808401518381111561325457600080fd5b61326088828701612ce3565b8284015250506101a08084015181830152506101c08084015181830152506101e061328c818501612e5b565b9082015261020061329e848201612e5b565b908201526102206132b0848201612e5b565b908201526102406132c2848201612e5b565b9082015261026083810151838111156132da57600080fd5b6132e688828701612e6b565b828401525050610280808401518381111561330057600080fd5b61330c88828701612e6b565b8284015250506102a0808401518381111561332657600080fd5b61333288828701612e6b565b8284015250506102c0808401518381111561334c57600080fd5b61335888828701612f4e565b8284015250506102e0915061336e828401612e5b565b91810191909152949350505050565b8183823760009101908152919050565b60006001820161339f5761339f612c29565b5060010190565b6001600160a01b039190911681526040602082018190526008908201526733b7bb32b93737b960c11b606082015260800190565b6000602082840312156133ec57600080fd5b5051919050565b6020808252602a908201527f6d75737420686f6c6420476f7665726e6f72204e465420746f2061646420746f60408201526908189b1858dadb1a5cdd60b21b606082015260800190565b818103818111156119b3576119b3612c29565b634e487b7160e01b600052603160045260246000fd5b60006020828403121561347857600080fd5b815180151581146125c157600080fd5b60006020828403121561349a57600080fd5b81516001600160401b038111156134b057600080fd5b612d4684828501612ce3565b6020815260006125c1602083018461266056fe374578c9ffe981bd2e4eb40fb5a32b42dba93d8a771b8ca9c8a7a5222fb13c7141e691fcbdc41a0c9c62caec68dbbdb99b245cbb72f06df6f40fa1bd1b4d97d97461736b5769746842616c616e63652e7461736b2e746f6b656e4964735b6964785d5b69645d7461736b5769746842616c616e63652e746f6b656e4e616d65735b6964785d5b69645da2646970667358221220395d4db46c325198d7ee201daddf790f086adda9eface784e7b677d32cd1c27e64736f6c63430008130033",
    "sourcePath": "/home/user/Documents/mainstream/dodao-diamond/contracts/facets/TaskDataFacet.sol",
    "compiler": {
        "name": "solc",
        "version": "0.8.19+commit.7dd6d404"
    },
    "functionHashes": {
        "addTaskToBlacklist(address)": "7267a186",
        "contractTaskDataFacet()": "d8ced0ed",
        "getRawTaskContracts()": "61d868fd",
        "getTaskContracts()": "bbd63456",
        "getTaskContractsBlacklist()": "6ece1857",
        "getTaskContractsBlacklistMapping()": "39bc2610",
        "getTaskContractsByState(string)": "cd8ac8df",
        "getTaskContractsByStateLimit(string,uint256,uint256)": "019d91a6",
        "getTaskContractsCount()": "854d7fc3",
        "getTaskContractsCustomer(address)": "edd2f344",
        "getTaskContractsCustomers(address[])": "f21fe5e2",
        "getTaskContractsPerformer(address)": "eb82e900",
        "getTaskContractsPerformers(address[])": "d1cf26f1",
        "getTasksData(address[])": "af4316db",
        "removeTaskFromBlacklist(address)": "4f56bf4b"
    },
    "gasEstimates": {
        "creation": {
            "codeDepositCost": "2742000",
            "executionCost": "2984",
            "totalCost": "2744984"
        },
        "external": {
            "addTaskToBlacklist(address)": "infinite",
            "contractTaskDataFacet()": "223",
            "getRawTaskContracts()": "infinite",
            "getTaskContracts()": "infinite",
            "getTaskContractsBlacklist()": "infinite",
            "getTaskContractsBlacklistMapping()": "infinite",
            "getTaskContractsByState(string)": "infinite",
            "getTaskContractsByStateLimit(string,uint256,uint256)": "infinite",
            "getTaskContractsCount()": "2369",
            "getTaskContractsCustomer(address)": "infinite",
            "getTaskContractsCustomers(address[])": "infinite",
            "getTaskContractsPerformer(address)": "infinite",
            "getTaskContractsPerformers(address[])": "infinite",
            "getTasksData(address[])": "infinite",
            "removeTaskFromBlacklist(address)": "infinite"
        }
    }
}